:020000040800F2
:10000000283700209D010008AD290008E71D0008E1
:100010001529000855160008C3400008000000001C
:1000200000000000000000000000000005010008C2
:100030000D1800080000000049010008453C0008B8
:10004000B7010008B7010008B7010008B7010008B0
:10005000B7010008B7010008B7010008B11A00088D
:10006000B7010008B7010008B7010008B701000890
:10007000B7010008B7010008B7010008B701000880
:10008000B7010008B7010008B7010008B701000870
:10009000B7010008B7010008B7010008B701000860
:1000A000B7010008B7010008B7010008B701000850
:1000B000B7010008B7010008B7010008B701000840
:1000C000B7010008B7010008B7010008B701000830
:1000D000B7010008B7010008C53E0008B7010008D5
:1000E000B7010008B7010008B7010008DFF810D019
:1000F00000F024FE0048004735530008AFF30080AD
:1001000028370020224B19680868B0E8F00F80F308
:100110000988BFF36F8F4FF0000080F311884EF015
:100120000D0E70470000000006480068006880F36C
:10013000088862B661B6BFF34F8FBFF36F8F00DFE1
:1001400000BF00BF08ED00E0EFF30980BFF36F8F41
:100150000F4B1A6820E9F00F106008B54FF05000FF
:1001600080F31188BFF34F8FBFF36F8F07F05AFFF3
:100170004FF0000080F31188BDE808401968086856
:10018000B0E8F00F80F30988BFF36F8F704700BFAE
:1001900004030020EFF30580704700000648804705
:1001A00006480047FEE7FEE7FEE7FEE7FEE7FEE75C
:1001B000FEE7FEE7FEE7FEE7553C0008ED0000081D
:1001C000A0F14101192900D82030704740EA01030D
:1001D0009B0703D009E008C9121F08C0042AFAD2FD
:1001E00003E011F8013B00F8013B521EF9D27047C1
:1001F000D2B201E000F8012B491EFBD27047002269
:10020000F6E710B513460A4604461946FFF7F0FF15
:10021000204610BD421E12F8013F002BFBD111F801
:10022000013B02F8013B002BF9D1704730B5054680
:100230002A460B4612F8010B13F8014B08B1A042F5
:10024000F8D01CB1002802D06D1CF1E7284630BD63
:10025000CAB2401E10F8011F8A4202D00029F9D10B
:1002600000207047421C10F8011B0029FBD1801AA6
:10027000704710B5044600E0401C0378002BFBD10A
:1002800000E0401C521E04D311F8013B0370002B08
:10029000F7D100210170204610BD034611F8012B53
:1002A00000F8012B002AF9D11846704730B50546F1
:1002B0000020034600E05B1C934205D2EC5CC85C66
:1002C000201A01D1002CF6D130BD00000FB400B5CA
:1002D0008DB010A909900B9000914FF0FF300A905B
:1002E00000200C9005480690054807906A4609A82A
:1002F0000F9900F0C3FB0DB05DF814FB990A0008DC
:10030000B70A00082DE9FF5F1D464FF0FF3BD5E916
:10031000014691465F464FF00008A9697F1C01988D
:100320008847296A824688470028F6D1BAF1FF3FFC
:100330000CD024F4C064002E19DD600614D5BAF187
:100340002B0F09D0BAF12D0F0ED103E0584604B09F
:10035000BDE8F09F44F48064A9697F1C0198884738
:10036000761E8246002E02DDBAF1300F03D0B9F1BD
:10037000000F26D032E0A969761E44F400747F1C79
:10038000019888478246002E05DDBAF1780F06D025
:10039000BAF1580F03D0B9F1000F10D01EE0B9F137
:1003A000000F02D0B9F1100F18D1A969761E24F4FC
:1003B00000747F1C019888478246102002E00820C4
:1003C00000E00A20814609E008FB0908A969761EB9
:1003D00044F400747F1C019888478246002E05DD96
:1003E0004946504600F036FB0028EDDAE9690198ED
:1003F0008847A00502D46FF00100A8E7E00725D1E7
:10040000600613D5600502D5C8F1000000E0404643
:1004100029680A1D2A600968220501D5087015E0BF
:10042000220701D5088011E008600FE02868011D4F
:1004300029600068210502D580F8008006E02107C8
:1004400002D5A0F8008001E0C0F8008038467EE7C1
:100450002DE9FF5FD2E901A74FF0000891699946A5
:100460001446DDF838B0464601988847054659EAF3
:100470000B0005D009E0A169761C01988847054664
:10048000216A284688470028F5D1681C03D05FEA16
:10049000CA7005D015E04FF0FF3004B0BDE8F09F02
:1004A0002068011D2160D0F800800AE05FEACA7070
:1004B00001D108F8015BA169761C7F1E019888476D
:1004C0000546002F1ADD681C18D0B9F1000F0DD0B9
:1004D000E81705EBD060421120F01F0059F82210F8
:1004E0002A1A012090400142E0D107E0BBF1000F41
:1004F000DCD1216A284688470028D7D0E1690198D5
:100500008847BBF1000F07D1002E05DD5FEACA70F6
:1005100002D1002188F80010A068B84203DDBBF1C9
:10052000000F03D017B16FF00100B6E73046B4E713
:1005300080EA010210B502F00043400022D04A00D8
:100540001FD0010E01EB1261C0F35600C2F3560238
:1005500040F4000042F40002A0FB022000047F39B6
:10056000140400D0401C50EA124001D44000491E3F
:10057000C2B20C0604EBD010401C4008802A02D006
:1005800003E0002010BD20F00100002900DA002067
:10059000184310BD30B480EA010202F0004530F08B
:1005A000004221F0004013D090B1C30DD40DC2F32E
:1005B0001601C0F31600E41A41F4000140F40002F1
:1005C0007D34914201D3641C00E04900002C02DA22
:1005D00030BC002070474FF400000023914201D34B
:1005E000891A034340084FEA4101F7D151B19142C2
:1005F00002D14FF0004105E002D24FF0010101E0CD
:100600006FF0010103EBC450284430BC00F064BA21
:100610002DE9FE4F804681EA0300C00F0C46009092
:1006200021F0004123F00045B8EB0200A94105D2BA
:100630004046214690461C460B46024623F00040A9
:10064000104347D0270DC7F30A00C3F30A510290A5
:10065000401A019040286BDAC3F3130040F4801B6A
:100660000098924620B10023D2EB030A63EB0B0BF8
:1006700001985946C0F14002504600F0BAF90646CA
:100680000D4650465946019A00F0D2F910EB080089
:100690006141002487EA115284EAE7731A4340D08B
:1006A000009A62B3019A012A4FEA075215DC001B37
:1006B00061EB02014FF0004202EA0752CDE900422D
:1006C000001C41F5801132462B4600F04BFA03B076
:1006D000BDE8F08F40462146F9E7001B61EB0201BF
:1006E000001C41F5801300185B412018A2F500178B
:1006F00047EB030140EAD570B6196D4111E06D0872
:100700004FEA360645EAC0754FEA0752001B61EB17
:100710000201001C41F5801149084FEA3000001920
:10072000514132462B4603B0BDE8F04F00F00BBA02
:100730000098012240000023D0EB020263EBE0733B
:10074000009821464FEAE074B8EB000061EB040129
:10075000E9E783F000435BE781F0004158E72DE9CA
:10076000FE4F81EA030404F0004421F000410094AC
:100770004FF0000B23F0004350EA01045ED052EA30
:1007800003045BD0C3F30A54C1F30A552C44A4F20A
:10079000F3340194A0FB0254C1F3130141F480111E
:1007A000C3F3130343F4801301FB024400FB034E25
:1007B000840A970A44EA815447EA8357A4FB0768EE
:1007C00002958D0A05FB07854FEA932C04FB0C5418
:1007D0002705029D4FEA065847EA1637B5EB08058C
:1007E0006EEB070C870E920E47EA811742EA8312DE
:1007F000A7FB0201B6EB0B0164EB00042B0D43EAEF
:100800000C335E1844EB1C50DA465146E7FB0201FC
:10081000C5F313044FEA0B3343EA14534FEA04328F
:10082000019C43EA0603A4F10C040294009CCDE968
:1008300000B400F097F903B0BDE8F08F0020014646
:10084000F9E796230022114600F04FB90EB5C10F0B
:1008500080EAE0700844CA07002140F233438DE883
:100860000E000A460B4600F07DF903B000BD70B5DE
:10087000C1F30A5201F000450024C1F3130140F214
:10088000FF3341F480119A4201DA002070BD40F23A
:1008900033439A42A2F2334203DC524200F0B8F8EA
:1008A00000E090402C43F1D0404270BD00F0004287
:1008B00030F000400AD0C10D01F56071C0F31600A0
:1008C00042EA0151C2084007114370470020014627
:1008D0007047000030B5041E71F1000404DB4FF0D6
:1008E0000044404264EB0101141E73F1000405DB77
:1008F0001C464FF00043524263EB0403994208BF89
:10090000904230BD01F0004330B421F0004150EA84
:10091000010206D00A0DA2F56072C1F31301002A8C
:1009200002DC30BC00207047440F44EAC104C1001F
:10093000E01830BC00EBC25000F0CEB8002801DB5C
:10094000C0F10040002901DBC1F100418142704744
:10095000002801DBC0F10040002901DBC1F10041AA
:100960008842704730B50B46014600202022012402
:1009700009E021FA02F59D4205D303FA02F5491B6D
:1009800004FA02F52844151EA2F10102F1DC30BD83
:100990002DE9F05F0546002092469B4688460646B4
:1009A000814640241BE0284641464746224600F047
:1009B0002FF853465A46C01A914110D31146184693
:1009C000224600F016F82D1A67EB01084F46224622
:1009D0000120002100F00DF817EB00094E41201E08
:1009E000A4F10104DFDC484631462A464346BDE80F
:1009F000F09F202A04DB203A00FA02F10020704721
:100A00009140C2F1200320FA03F31943904070474C
:100A1000202A04DB203A21FA02F00021704721FA53
:100A200002F3D040C2F120029140084319467047BA
:100A3000202A06DBCB17203A41FA02F043EAE073A2
:100A400006E041FA02F3D040C2F12002914008438F
:100A5000194670473A2800D2303820F02002412A47
:100A600001D3A2F13700884201D34FF0FF30704725
:100A7000026811441378016018467047D160044938
:100A800051610449116200211161114600F06EB9F3
:100A9000710A0008610D0008426842B1016811F84E
:100AA000013B23B1521EC0E90012184670470121D4
:100AB000C160881E704742685AB1C368016843B973
:100AC00083688B4205D0491E521CC0E900120020E9
:100AD00070474FF0FF3070470029A8BF7047401C97
:100AE000490008BF20F00100704710B4B0FA80FC44
:100AF00000FA0CF050EA010404BF10BC704749B181
:100B0000CCF1200421FA04F411FA0CF118BF0121F0
:100B100021430843A3EB0C01CB1D4FEA00614FEAD0
:100B2000102042BF002010BC704700EBC35010449F
:100B30000029A4BF10BC7047401C490008BF20F02A
:100B4000010010BC704710B5141E73F1000408DAE0
:100B5000401C41F1000192185B411A4301D120F081
:100B6000010010BD2DE9F04D92469B4611B1B1FA3E
:100B700081F202E0B0FA80F220329046FFF739FFAE
:100B800004460F4640EA0A0041EA0B0153465A4622
:100B9000084313D0114653EA010019D0C8F14002AE
:100BA0005046FFF735FF05460E4650465946424629
:100BB000FFF71FFF084305D0012004E02046394617
:100BC000BDE8F08D0020054346EAE0762C4337432C
:100BD0000A986305E40AA0EB08000022FD0A44EA33
:100BE00047540A3002D500200146E9E701051019F3
:100BF0006941DDE9084500196941BDE8F04DA2E70A
:100C00002DE9F04D81EA030404F0004B21F000458A
:100C100014464FF0000A23F0004150EA050220D0AC
:100C200054EA01021DD0C5F30A570246C5F3130367
:100C3000C1F31300C1F30A5640F4801543F4801346
:100C4000A7EB0608101BD64608F2FD3873EB05002B
:100C500002D308F1010801E092185B41B8F1000FDE
:100C600003DA00200146BDE8F08D00204FF480112A
:100C7000064684460EE0171B73EB050705D3121BCF
:100C800063EB050306434CEA010C49084FEA3000C8
:100C900092185B4150EA0107EDD152EA030012D0ED
:100CA00082EA040083EA0501084305D0101BAB412A
:100CB00006D20122002306E000224FF0004302E0AA
:100CC0006FF0010253101AEB06004CEB085110EBC9
:100CD0000A0041EB0B01BDE8F04DFFF734BF70B5E2
:100CE00021F0004303430CD0C1F30A550024D5EB97
:100CF000040564EB0403D617AD1AB34102DB0020F0
:100D0000014670BD201841EB025170BDC1F30A527B
:100D1000C1F3130140F2FF3341F480119A4202DA29
:100D200000200146704740F233439A42A2F2334218
:100D300002DC5242FFF76CBEFFF75BBE064C074D6C
:100D400006E0E06840F0010394E80700984710349B
:100D5000AC42F6D3FFF7CEF94C9C00086C9C00081F
:100D6000C0B24FF4F05100F0EBB900002DE9F34FA1
:100D70008BB04FF0000801F10C000C464FF0010B56
:100D800046460DF1080A01906269012101989047D9
:100D9000051E2DD0252D2CD0216A8847C0B162694F
:100DA000012101989047216A88470028F7D1411E08
:100DB00062690198904700E0761CA1690B9888470A
:100DC000216A88470028F7D1E1690B988847DBE75B
:100DD000A1690B9888470746A84201D1761CD3E742
:100DE000E1690B9888477F1C02D1B8F1000F6FD0E2
:100DF00047E1002762693D463946019890472A2815
:100E000004D162690121019890470125DFF8889299
:100E10006269012101989047A0F130010A290AD2A4
:100E20004F45E5DC07EB870100EB4107303FDFD49E
:100E300045F01005ECE7E90601D46FF000476C2897
:100E40000AD04C2814D0682815D06A280DD07428F0
:100E50001CD07A281AD01DE06269012101989047C0
:100E60006C2802D045F0040514E045F002050DE0C1
:100E700045F020050AE06269012101989047682841
:100E800002D045F0080505E045F4006562690121DE
:100E900001989047C4E9015765283DD019DC5828CE
:100EA0007AD00CDC452837D004DC252826D0412810
:100EB00031D131E046282FD047282CD12CE05B28B7
:100EC00077D0612828D063287CD0642823D15AE0C9
:100ED000D1E06F2848D008DC66281DD067281BD0D9
:100EE000692821D06E2816D127E0702845D07328B4
:100EF00068D0752847D078280DD14DE0A1690B98AE
:100F00008847054625283FF469AFE1690B98884773
:100F10006D1C3FF46AAFB4E023466A466FF00100EF
:100F20000B99AFF300809FE045F040006060A80798
:100F300023464FF0000236D43EE0E8077FF447AF87
:100F40002068011D21600068290501D506701BE796
:100F5000290701D5068017E7A90703D5F117C0E9CE
:100F6000006111E706600FE745F040006060A807E8
:100F700023464FF0080216D41EE040F60E0125EA83
:100F80000100606016E045F040006060A80723465D
:100F90004FF00A0207D40FE045F040006060A80758
:100FA00008D5234610226FF001000B99AFF30080A3
:100FB0005AE007E0234610226FF001000B99FFF77B
:100FC000A1F951E04FF000094F464B46632802D08B
:100FD0005B2807D041E02079C00601D40120A06041
:100FE00001273AE062690121019890475E2805D106
:100FF0004FF001096269494601989047216939B962
:1010000000210A46534643F82120491C0829FADBEF
:10101000B0B3216969B9C11700EBD16253110AEB72
:10102000830122F01F02821A01200B6890400343C3
:101030000B6062690121019890475D28E8D1B9F100
:10104000000F09D00020514651F82020D24341F82A
:101050002020401C0828F7DB02AB224600976FF0E7
:1010600001000B99FFF7F4F900280CDA401C08D1B5
:10107000BBF1000F05D04FF0FF300DB0BDE8F08F91
:10108000FFE74046F9E7E90701D108F10108064406
:101090004FF0000B78E60000CCCCCC0C2DE9F04DE5
:1010A00000231A461B1A8A4103DB00200146BDE8D3
:1010B000F08DC1F30A52C1F3130141F480154FF0D2
:1010C000000BD10702D100186D41521E00270446C3
:1010D00040F2FF11384601EB620A3E468046024666
:1010E00000204FF48011FFF793FCC2197141BB1827
:1010F00046EB0100B4EB030C75EB000C04D3E41ACF
:1011000065EB000517460E46241908F101006D41F4
:1011100080463428E3DDF91946EB0600091BA84197
:1011200003D24FF0FF32134601E0002213461BEBBF
:10113000070046EB0A51BDE8F04DFFF704BD000083
:101140007F2801D9002208E0064A02EB5002C007BE
:10115000127800D1120902F00F02012090400840DD
:1011600070470000B09A000870B58C1810F8015B49
:1011700015F0070301D110F8013B2A1106D110F830
:10118000012B03E010F8016B01F8016B5B1EF9D134
:101190002B0705D40023521E0DD401F8013BFAE7BA
:1011A00010F8013BCB1A921C03E013F8015B01F825
:1011B000015B521EF9D5A142D8D3002070BD21B1E8
:1011C000826842F00102826003E0826822F001023C
:1011D00082607047014600208A6802F004020AB16A
:1011E000012000E0002070470146C86C80B27047C3
:1011F0000246002013680B400BB1012000E00020E4
:101200007047014600208A6802F008020AB10120F6
:1012100000E000207047000030B5024600200023A7
:1012200050680F4C20400D790C6844EA0524204397
:10123000506090680B4C2040D1E902542C434D790A
:1012400044EA450420439060D06A20F470000C7C8E
:10125000641EE4B2234340EA0350D06230BD000074
:10126000FFFEF0FFFDF7F1FFF0B504460D4600204C
:101270000021092D11DDE068A5F10A0606EB4607FD
:10128000072606FA07F18843A5F10A0606EB46068B
:1012900003FA06F10843E0600CE0206905EB45071E
:1012A000072606FA07F1884305EB450603FA06F11F
:1012B00008432061072A0FDA606B561E06EB86078B
:1012C0001F2606FA07F18843561E06EB860605FA26
:1012D00006F10843606322E00D2A0FDA206BD61F67
:1012E00006EB86071F2606FA07F18843D61F06EB92
:1012F000860605FA06F10843206310E0E06AA2F1D1
:101300000D0606EB86071F2606FA07F18843A2F1B1
:101310000D0606EB860605FA06F10843E062F0BD0D
:10132000816841F008018160704721B1826842F410
:10133000A002826003E0826822F4A002826070470B
:10134000816841F004018160704700002DE9F04799
:10135000074689469046DDF820C00021002200247F
:1013600000260025002004460246014645E00026EE
:1013700001E0491C761C614502D2585C2028F8D057
:10138000614500D13BE0ACEB0100022807D3585C7B
:101390000D2804D1481C185C0A2800D12CE0585CA8
:1013A0000A2800D128E01EB16FF02B00BDE8F087BD
:1013B000585C3D2806D1601C0446022802D96FF013
:1013C0002B00F3E7585C7F2806DC585CDFF8E4A0CC
:1013D0001AF800007F2802D16FF02B00E6E7585C76
:1013E000DFF8D0A01AF80000402803DA14B16FF03B
:1013F0002B00DBE7521C00BF491C6145B7D300BF7F
:101400001AB90020C8F80000D0E7D00800EB40006F
:101410004FEA400A02F0070000EB40004000C01D08
:101420000AEBD002121B0FB1914504D2C8F800207C
:101430006FF02900BAE703240020064602463D4625
:1014400031E018780D2805D018780A2802D01878CD
:10145000202800D125E01878DFF858A01AF80000FD
:10146000402801D1012000E00020241A1878DFF87C
:1014700044A01AF8000066F39F100646501C02466E
:1014800004280DD1002214B1300C05F8010B012CF9
:1014900002D9300A05F8010B022C01D905F8016BBD
:1014A00000BF491E5B1C0029CBD1E81BC8F8000017
:1014B00000207BE7949900082DE9F04F0746894604
:1014C000099C00250026AC46A846AA4600211CB966
:1014D00000201060BDE8F08F0320B4FBF0F04FF067
:1014E000030BB4FBFBFE0BFB1E4BBBF1000F02D04A
:1014F0004FF0010B01E04FF0000B00EB0B06B6F1D3
:10150000804F05D34FF0FF3010606FF02900E1E706
:10151000B600701C814500D327B9701C10606FF0B5
:101520002900D7E70320B4FBF0F000EB40060025CC
:10153000394629E013F801CB13F8018B13F801ABFE
:101540002D484FEA9C0B10F80B0001F8010B4FEAF5
:101550000C1000EB281000F03F00DFF89CB01BF8E7
:10156000000001F8010B4FEA880000EBAA1000F020
:101570003F001BF8000001F8010B0AF03F001BF8C8
:10158000000001F8010BED1CB542D3D3A5422DD2CA
:1015900013F801CB681CA04202D213F8010B00E043
:1015A000002080461448CCF3850B10F80B0001F89E
:1015B000010B4FEA0C1000EB281000F03F00DFF8A1
:1015C00038B01BF8000001F8010B681CA04207D2DC
:1015D0003F2000EA88001BF8000001F8010B02E040
:1015E0003D2001F8010B3D2001F8010BC81B1060E4
:1015F0000020087000BF6DE75499000808B501216C
:10160000082002F015FA10208DF803004001ADF813
:10161000000003208DF802006946034800F046FBF5
:10162000002000F003F808BD000C014010B504468E
:10163000012C01D0012000E0002002464FF400718F
:10164000024800F0CBFB0248047010BD000C0140C2
:10165000D90200207047000010B500241748006828
:1016600020F00F00154908600846006840F00800A7
:10167000086004E0601CC4B2012003F0C3FC012137
:101680000E4800F09EFB08B1642CF3DB642C01DBF8
:10169000012010BD002404E0601CC4B2012003F04E
:1016A000B1FC0121054800F08CFB08B9642CF3DB88
:1016B000642C01DB0120ECE70020EAE70008014090
:1016C00008B50121042002F0B3F90120ADF80000B3
:1016D00010208DF8030003208DF8020069460648AB
:1016E00000F0E4FA0121044800F076FB00F06EF807
:1016F000FFF7B2FF08BD00000008014010B500244C
:1017000004E0601CC4B2012003F07CFC01211048FD
:1017100000F057FB08B1642CF3DB002404E0601CEC
:10172000C4B2012003F06EFC0121094800F049FB1E
:1017300008B9642CF3DB282003F064FC0121044881
:1017400000F03FFB08B1012010BD0020FCE70000C5
:101750000008014070B50024002506E06006040E74
:10176000FFF7CCFF0443681CC5B2082DF6DB20460A
:1017700070BD7CB505460E4600F028F8FFF76CFFFB
:10178000F8B9002405E0FFF7E5FF0DF80400601C40
:10179000C4B2052CF7DB9DF800009DF80110084449
:1017A0009DF8021008449DF8031008449DF80410A9
:1017B000884208D19DF8000030709DF80200287022
:1017C00001E001207CBD0020FCE7000010B50E48C0
:1017D000006820F00F000C4908600846006840F0DF
:1017E0000300086000220121074800F0F7FA1420E6
:1017F00003F02CFC01221146034800F0EFFA1E20F2
:1018000003F000FC10BD000000080140704700001C
:1018100010B54FF400710348FEF7F1FC00200249B7
:10182000088010BD282F00207A03002070B50546DF
:10183000002400BF00F022F980B90DA10E48FEF788
:10184000F5FC044654B13A212046FEF701FD04465A
:1018500014B1641C204670BD0020FCE7012003F099
:10186000B1FB281EA5F101018DB2E3D100BFF2E763
:101870004950442C00000000282F002010B5FFF72D
:10188000C7FF01F0D7F8082328A20021084601F07D
:1018900015FA03E04FF4FA7003F0D8FB25A126A057
:1018A00000F09EF80028F5D1082325A2022101F0BE
:1018B00005FA03E04FF4FA7003F0C8FB1DA123A062
:1018C00000F08EF80028F5D1082324A2042101F0AD
:1018D000F5F903E04FF4FA7003F0B8FB15A123A06B
:1018E00000F07EF80028F5D1082324A2062101F09B
:1018F000E5F903E04FF4FA7003F0A8FB22A124A05D
:1019000000F06EF80028F5D129A12F4802F072FCF2
:1019100001F090F810232DA20521002001F0CEF94E
:101920004FF4FA7003F092FB10BD0000312E4154C9
:101930002E2E2E004F4B000041540D0A00000000D7
:10194000322E43574D4F44452E2E2E0041542B43EB
:10195000574D4F44453D310D0A000000332E415490
:101960002B4357444843502E2E2E000041542B4306
:1019700057444843503D312C310D0A00342E435713
:101980004A41502E2E2E0000474F5420495000004F
:1019900041542B43574A41503D22696F7171222CAB
:1019A000223132333435363738220D0A0000000038
:1019B000352E204553503832363620496E69742012
:1019C0004F4B0D0A0000000000380140352E4553F2
:1019D000503832363620496E6974204F4B00000073
:1019E0002DE9F04104460D46C8262046FEF73AFC94
:1019F00087B23A4621460D4802F020FC0FE000F085
:101A00003DF848B929460A48FEF710FC20B1FFF717
:101A1000FFFE0020BDE8F0810A2003F017FB301E16
:101A2000A6F10101CEB2EAD10120F3E70044004063
:101A3000282F002030B589B004460D46FFF7E8FE98
:101A40002A4608A101A802F093FC0AA101A8FFF709
:101A5000C7FF20B92A462146074802F0EFFB09B02C
:101A600030BD000041542B43495053454E443D2561
:101A7000640D0A003E000000004400400A4800884F
:101A800008B9012070470848008808490988884239
:101A900003D1002004490880F4E703480088034983
:101AA00008800120EEE700007A0300207C0300207C
:101AB00038B50020009000BF5021EFF3118081F372
:101AC0001188BFF34F8FBFF36F8F00BF044610A183
:101AD000114802F08FFB022000F02CF898B16A4602
:101AE0000E4801680E48006806F072FB009838B195
:101AF0004FF080500B490860BFF34F8FBFF36F8FDB
:101B0000022000F011F800BF84F3118800BF38BD37
:101B10006B65790D0A00000000380140349100081F
:101B20003000002004ED00E001490860704700002B
:101B300014040140014600200022074B1B6803EA01
:101B40000102054B14331B680B4013B10AB101208D
:101B500000E00020704700000004014000212349FC
:101B60008279002A3AD00A46126803689A430B46E3
:101B70001A600A1D126803689A430B1D1A600279E5
:101B800011440A6803681A430A60184A0832126846
:101B900003689A43154B08331A601A1D12680368CC
:101BA0009A43124B0C331A604279102A0ED11A1F35
:101BB000126803681A430D4B08331A601A1D126825
:101BC00003681A43094B0C331A600DE00749427948
:101BD00011440A6803681A430A6005E00279114457
:101BE0000A6803689A430A607047000000040140D5
:101BF00010B5044640F2E7310A4802F00EF914200D
:101C000003F0E0F904EB84004100064802F005F916
:101C1000002C03DD01200449087002E00020024985
:101C2000087010BD002C0140DA02002010B501F050
:101C30000FFF00F009F802F03DF810BD10B50446A2
:101C40002046FFF7D5FF10BD08B54FF48070ADF802
:101C5000000018208DF8030003208DF8020069466B
:101C6000014800F023F808BD0008014030B500220B
:101C70008B071C0F0F2303FA04F20B4B8C1053F845
:101C800024309343084C8D1044F8253023468C10A3
:101C900053F824308C07240F00FA04F42343024C39
:101CA0008D1044F8253030BD080001402DE9F04189
:101CB000024600250026002000230024002791F87A
:101CC00003C00CF00F0591F803C00CF0100CBCF130
:101CD000000F03D091F802C04CEA050591F800C04E
:101CE000BCF1000F31D0146800202BE04FF0010C44
:101CF0000CFA00F3B1F800C00CEA03069E4220D1B2
:101D000083004FF00F0C0CFA03F7BC4305FA03FCF9
:101D10004CEA040491F803C0BCF1280F06D14FF03F
:101D2000010C0CFA00FCC2F814C00AE091F803C0E0
:101D3000BCF1480F05D14FF0010C0CFA00FCC2F8C1
:101D400010C0401C0828D1D31460B1F800C0BCF109
:101D5000FF0F34DD546800202EE000F1080C4FF036
:101D6000010808FA0CF3B1F800C00CEA03069E4221
:101D700021D183004FF00F0C0CFA03F7BC4305FA96
:101D800003FC4CEA040491F803C0BCF1280F05D110
:101D900000F1080C08FA0CF8C2F8148091F803C09E
:101DA000BCF1480F07D100F1080C4FF0010808FA08
:101DB0000CF8C2F81080401C0828CED35460BDE84F
:101DC000F0810246002093680B400BB1012000E037
:101DD0000020704741617047016170470AB101619D
:101DE00000E041617047704710B502210748FFF7D6
:101DF000F3FF01210548FFF7EFFF01210348FFF73B
:101E0000E9FF02210148FFF7E5FF10BD000C01408A
:101E100010B502210548FFF7DFFF01210348FFF756
:101E2000D9FF01210148FFF7D7FF10BD000C014089
:101E300010B502210348FFF7CFFF02210148FFF749
:101E4000C9FF10BD000C01401FB50121052001F0A4
:101E5000EFFD0220ADF8040048208DF8070001A92D
:101E60001048FFF723FF01210020FFF7FFFE0220AB
:101E7000029000208DF80C000C208DF80D0002A8B7
:101E8000FFF76CFE07208DF8000006208DF801009A
:101E900000208DF8020001208DF80300684600F054
:101EA00087FD1FBD0008014008B532E04FF0FF304C
:101EB00000230122114600901648006806F09AF9A6
:101EC000044615A1164802F095F904F0010000B38C
:101ED0000A2005F06FFE02211248FFF772FFC0B919
:101EE00011480078012803D1002000F021F802E019
:101EF000012000F01DF80D480078012803D10020D2
:101F0000FFF79CFE02E05020FFF798FE0020FFF74D
:101F10008DFBCBE7300000206B65790D0A000000D7
:101F2000003801400008014058000020DA0200207B
:101F300010B5044684F001024FF400510248FFF747
:101F40004DFF0248047010BD0010014058000020F1
:101F500000242AE002F030FF1449086008460068B7
:101F6000FEF7A4FC05462A460B4611A1134802F0D1
:101F700041F9134801680D480068FEF7E9FC06D2F4
:101F80002CB902210F48006806F0AEF801240C4875
:101F9000016806480068FEF7D1FC02D2012C00D18E
:101FA00000244FF47A7003F00DF8D3E724000020EA
:101FB0006D71323A20252E32660D0A00003801403C
:101FC000280000203000002010B50446207B0128A6
:101FD00002D1206803F092F8002020606060A060C9
:101FE000207310BD0246002301230DE002F07F00A4
:101FF0000870D2092AB1087840F080000870491CA6
:1020000001E0184670475B1C042BEFDD4FF0FF30FA
:10201000F8E770B504460E460025206898B90120FF
:102020002073304603F042FA20602068E0B10020BF
:102030006060A66003E00020216848556D1CA06820
:10204000A842F8D810E00220207303E000202168A5
:1020500048556D1CA068A842F8D800206060A068B0
:10206000B04201D20020206070BD00002DE9FF4F7A
:1020700083B082468B469146159C00250020029035
:102080000F2701904846FEF7EDF80FFA80F8B9F1F6
:10209000000F03D1012007B0BDE8F08F08F1020066
:1020A000384487B2109808B145F00205129878B10B
:1020B00045F004051298FEF7D5F8C0B202901398C7
:1020C000FEF7D0F801460298001D0844384487B254
:1020D000119820B1012804D0022808D104E000BFE3
:1020E00007E045F00C0504E045F0140501E002208E
:1020F000D1E700BF149808B145F02405BAF1000FEC
:1021000002D0BBF1000F01D10320C4E745F0C005A8
:102110005046FEF7A7F806465846FEF7A3F83044A7
:10212000001D384487B239462046FFF772FF206809
:1021300008B90420AFE739462068FEF760F810219F
:102140006268501C606020688154D4E90023D11873
:10215000781FFFF747FF00B201900198002804DACA
:102160002046FFF731FF052095E761680198084494
:10217000606000216268501C606020688154042106
:102180006268501C6060206881544D216268501C58
:1021900060602068815451216268501C6060206832
:1021A000815454216268501C6060206881546268C8
:1021B000501C60602068815404216268501C60607B
:1021C000206881546168481C606020684554069806
:1021D000010A6268501C6060206881540698C1B290
:1021E0006268501C606020688154C8F307216268EF
:1021F000501C6060206881546268501C60602068D8
:1022000000F80280D4E90012881842464946FEF7D9
:1022100030F860684044606005F00400B8B3002600
:10222000139808B938A013901298FEF71BF886B2DD
:10223000310A6268501C6060206881546268501CDA
:10224000606020688654D4E90012881832461299DA
:10225000FEF70FF86068304460601398FEF702F8EC
:1022600086B2310A6268501C6060206881546268DE
:10227000501C606020688654D4E9001288183246E9
:102280001399FDF7F6FF60683044606000BF05F009
:102290008000C8B15046FDF7E5FF86B2310A62689A
:1022A000501C6060206881546268501C6060206827
:1022B0008654D4E90012881832465146FDF7D9FFFA
:1022C00060683044606000BF05F04000C8B1584607
:1022D000FDF7C8FF86B2310A6268501C6060206852
:1022E00081546268501C606020688654D4E90012F2
:1022F000881832465946FDF7BCFF6068304460607C
:1023000000BF0020C7E60000000000002DE9FF4FDD
:1023100083B0834617469946139C0025002600206B
:10232000029001908046BBF1000F03D1012007B05D
:10233000BDE8F08F00260AE00498805D232803D0D2
:102340000498805D2B2801D10220F0E7761C0498C8
:10235000805D0028F0D148F03008119808B148F0AD
:10236000010806EB0900851C109820B1012804D053
:1023700002280AD105E000BF09E048F00208AD1CC0
:1023800005E048F00408AD1C01E00320CFE700BFE2
:102390008FB33878022821D14FF0000A00BF504691
:1023A0000AF1010A385C7D28F9D1AAF1030A0AF181
:1023B000070002900298A9EB000AE81CA0EB0A01B2
:1023C0002046FFF726FE206808B90420AFE7EA1C84
:1023D000A2EB0A012068FDF712FF19E0691D2046F3
:1023E000FFF717FE206808B90420A0E7691D2068E0
:1023F000FDF705FF0CE0FFE7691D2046FFF709FE2A
:10240000206808B9042092E7691D2068FDF7F7FEEF
:102410006168481C6060206800F80180D4E900020F
:1024200081182846FFF7DEFD01900198002804DAA4
:102430002046FFF7C9FD052079E761680198084447
:102440006060C6F307216268501C60602068815498
:102450006268501C606020688654D4E900128818B5
:1024600032460499FDF705FF6068304460601098BB
:1024700060B14FEA1B216268501C60602068815483
:102480006268501C6060206800F802B0C7B13878FC
:1024900002280BD1D4E9001288183946029AFDF7B8
:1024A00095FE616802980844606009E0D4E9001272
:1024B00088184A463946FDF789FE606848446060DE
:1024C000002034E72DE9F04190B004460D46164651
:1024D0009846169F23460CA2302104A8009501F0CF
:1024E0002DFF01200021CDE9000133460A4604A951
:1024F000CDE902070A20FFF709FF18B1012010B04B
:10250000BDE8F0810020FAE7247379732F25732F3B
:1025100025732F7468696E672F70726F706572749F
:10252000792F706F737400002DE9FF5F80461746A6
:1025300099460E9C0026B246B3460025B8F1000F1E
:1025400003D1012004B0BDE8F09F0BE057F825004F
:1025500008B90220F6E757F82500FDF783FE064488
:10256000681CC5B24D45F1DB09EB4900801C00EB4E
:10257000060A0AF105012046FFF74BFD206808B95D
:102580000320DFE782216268501C6060206881546C
:10259000D4E9000281185046FFF724FD0FFA80FBB2
:1025A000BBF1000F04DA2046FFF70EFD0420C9E757
:1025B0006068584460604FEA18216268501C60608F
:1025C000206881546268501C6060206800F80280B6
:1025D000002524E057F82500FDF744FE0646C6F323
:1025E00007216268501C6060206881546268501C3A
:1025F000606020688654D4E90023D01857F825106D
:102600003246FDF736FE6068304460600198C1B222
:102610006268501C606020688154681CC5B24D45DA
:10262000D8DB00208EE7F0B504460D462646012390
:1026300000201060002114E0775C07F07F0710682D
:1026400007FB03001060705C00F0800008B9481CB4
:10265000F0BDDB01B3F5001F02D36FF00100F7E717
:10266000491CA942E8DB4FF0FF30F1E7014648780A
:10267000022801D001207047887810B1887801289D
:1026800001D1C878F7E7FF20F5E700002DE9FC5FEE
:1026900081460D4614461E46DDE90C8B99F8000074
:1026A00000F00F0A002001900AF008000090CAF321
:1026B00041008BF8000001AA042109F10100FFF795
:1026C000B2FF4844471C0198022802D30AF00100D7
:1026D00010B1FF20BDE8FC9F7878397840EA0120EE
:1026E00020802088801C0199884201D9FF20F1E7D1
:1026F00054A1B81CFDF79AFD08B10F20EAE79BF83A
:10270000000020B101283DD0022877D13BE000989D
:1027100008B1FF20DEE72188481C02F0C7FE2860D0
:10272000286808B9FF20D5E72288511C2868FDF7E2
:1027300066FD2288B91C2868FDF748FD0198801EB7
:102740002188401AA8F80000B8F80010481C02F0D0
:10275000ADFE3060306820B9286802F0CFFCFF2061
:10276000B8E7B8F80020511C3068FDF748FDB8F80C
:102770000020B4F800C0BB1C0CEB03013068FDF76F
:1027800025FD4FE000BF2088801C0199884201D9B7
:10279000FF209FE72088C01C395C2088801C385CA3
:1027A00041EA00210E9801800E9808B9FF2091E7B8
:1027B0002188481C02F07AFE2860286808B9FF20AA
:1027C00088E72288511C2868FDF719FD2288B91C6A
:1027D0002868FDF7FBFC0198001F2188401AA8F823
:1027E0000000B8F80010481C02F060FE306030684D
:1027F00028B9286802F082FCFF206BE710E0B8F8E7
:102800000020511C3068FDF7FAFCB8F80020B4F83D
:1028100000C03B1D0CEB03013068FDF7D7FC01E065
:10282000FF2057E700BF2B212846FDF711FD20B9F7
:1028300023212846FDF70CFD08B1FF204AE70020C0
:1028400048E7000024637265710000000146487883
:10285000022801D001207047887820B9C8780A285A
:1028600001D10020F7E70120F5E70000F8B50446A4
:10287000FF2720780511012D01DB0E2D01DD3846E3
:10288000F8BD032D24D1002000906A460421601C6D
:10289000FFF7C9FE2044461C0098022803D3207885
:1028A00000F0010008B1FF20EAE77078317840EAD3
:1028B0000120801C0099884201D9FF20E0E706A191
:1028C000B01CFDF7B3FC08B10F2700E0032700E0C0
:1028D0002F463846D4E7000024637265710000007B
:1028E0000146FF208A78A2B9CA78142A11D10A7940
:1028F00032B1012A05D0022A04D0802A06D103E091
:1029000000BF00BF002003E0012001E0022000BF63
:1029100000BF70477047000000B587B001214FF439
:10292000017001F085F82020ADF8180000208DF826
:102930001B0006A91B48FFF7B9F9002001908DF88C
:10294000080001208DF809004FF46020039000205A
:10295000049001208DF8140001A91348FEF75CFCD7
:102960000523012219461048FEF77EFC01210E487E
:10297000FEF725FC0C48FEF7D3FC00BF0A48FEF723
:1029800040FC0028FAD10848FEF7DAFC00BF0648F0
:10299000FEF720FC0028FAD101210348FEF7C5FC10
:1029A00007B000BD0008014000240140704700004E
:1029B00070B5002100230F22C47804B3154C24689D
:1029C00004F4E064C4F5E064210AC1F10403CA40E0
:1029D000447804FA03F184781440214309010E4C31
:1029E0000678A155047804F01F050124AC40057851
:1029F0006D11AD0005F1E025C5F8004109E004784E
:102A000004F01F050124AC40044D0678761145F80A
:102A1000264070BD0CED00E000E400E080E100E045
:102A200002490143024A1160704700000000FA05A4
:102A30000CED00E070B5002418E004F1B0000021B6
:102A400000F059F90021084600F055F90021102046
:102A500000F051F9002505E00121002000F04BF9BC
:102A6000681CC5B2802DF7DB601CC4B2082CE4DB07
:102A700070BD000008B50121082000F0D9FF032037
:102A8000ADF8000010208DF8030003208DF802003F
:102A900069463C48FFF70AF903213A48FFF79CF9D9
:102AA0004FF4487002F0D2FA0021AE2000F023F972
:102AB0000021084600F01FF90021102000F01BF94A
:102AC0000021402000F017F90021B02000F013F998
:102AD0000021812000F00FF90021FF2000F00BF908
:102AE0000021A12000F007F90021A62000F003F941
:102AF0000021A82000F0FFF800213F2000F0FBF8A3
:102B00000021C82000F0F7F80021D32000F0F3F8EE
:102B10000021084600F0EFF80021D52000F0EBF886
:102B20000021802000F0E7F80021D82000F0E3F831
:102B30000021052000F0DFF80021D92000F0DBF8AB
:102B40000021F12000F0D7F80021DA2000F0D3F8BE
:102B50000021122000F0CFF80021DB2000F0CBF89C
:102B60000021302000F0C7F800218D2000F0C3F8CC
:102B70000021142000F0BFF80021AF2000F0BBF8C6
:102B800008BD0000000C014070B504460D4605F17B
:102B9000B000002100F0AFF8102141EA141000212C
:102BA00000F0A9F804F00F00002100F0A4F870BDB7
:102BB0002DE9F04180460E46154600273146404635
:102BC000FFF7E2FF00240AE0124A02EB8511085DDC
:102BD000012100F090F8781CC7B2601CC4B2102C20
:102BE000F2DB701CC1B24046FFF7CEFF00240CE0C0
:102BF0006900491C074A02EB4111085D012100F000
:102C00007AF8781CC7B2601CC4B2102CF0DBBDE8A7
:102C1000F0810000590000202DE9F04707460E46DC
:102C20009046994600250024A8F12000C5B27F2FC8
:102C300002DD0027B01CC6B2B9F1100F24D1314615
:102C40003846FFF7A1FF002408E004EB0511194AFC
:102C5000505C012100F04FF8601CC4B2082CF4DB7A
:102C6000701CC1B23846FFF78FFF002409E004EB67
:102C7000051108310F4A505C012100F03CF8601C3E
:102C8000C4B2082CF3DB12E031463846FFF77CFF74
:102C900000240AE005EB4501074A02EB4101085D0B
:102CA000012100F028F8601CC4B2062CF2DBBDE85C
:102CB000F0870000649300083C9100082DE9F04182
:102CC00004460F461546984600260FE0AA5D434687
:102CD00039462046FFF7A0FF04F10800C4B2782C63
:102CE00002DD0024B81CC7B2701CC6B2A85D002863
:102CF000ECD1BDE8F08170B504460D461DB1E0B2DF
:102D000001F0F6FA02E0E0B201F0DCFA70BD00007A
:102D1000F0B58BB00546002600242846FDF7A2FA40
:102D2000C7B20DB11C2F02DA01200BB0F0BD06E0D6
:102D3000A85D01A988550020A855701CC6B2BE42E6
:102D4000F6DB002001A988550026002455E001A8E3
:102D5000805D2B2810D008DC202814D023282ED00A
:102D6000252825D026283FD130E02F2812D03D2815
:102D700033D03F2838D114E0281923A1FDF74AFAAF
:102D8000E01CC4B236E0281920A1FDF743FAE01C8C
:102D9000C4B22FE028191EA1FDF73CFAE01CC4B212
:102DA00028E028191BA1FDF735FAE01CC4B221E088
:102DB000281919A1FDF72EFAE01CC4B21AE028194F
:102DC00016A1FDF727FAE01CC4B213E0281914A1DC
:102DD000FDF720FAE01CC4B20CE0281911A1FDF7A0
:102DE00019FAE01CC4B205E001A8805D2855601CFA
:102DF000C4B200BF00BF701CC6B2BE42A7DB002039
:102E0000285500BF91E700002532420025323000EE
:102E10002532460025334600253235002532330061
:102E200025323600253344002DE9F04FC9B0054660
:102E30000C4616461F460DF5A47898E8000F0020B2
:102E4000489055B14CB13F48864206D32FB1B9F1F5
:102E5000000F02D0BAF1780F03DA012049B0BDE8C3
:102E6000F08F402118A8FDF7CAF93846FDF7FAF9A6
:102E700005903B4648AA4021009018A8FEF766FA44
:102E8000482106A8FDF7BBF9BBF1000F09D02EA021
:102E900033462FA248218DE8310006A801F04EFAF2
:102EA00009E029A0334630A248218DE8110103959D
:102EB00006A801F043FA402128A8FDF7A0F906A8CA
:102EC000FDF7D0F9059018A8FDF7CCF9049028A8D3
:102ED000009006AA18A8DDE9041302F05DF90020AD
:102EE0004890402138A8FDF78AF928A8FDF7BAF9DB
:102EF000059028AB48AA4021009038A8FEF7DCFADC
:102F000038A8FFF705FFBBF1000F0CD038A80EA1C1
:102F10002B461DA2CDE90046CDE902105146484698
:102F200001F00CFA0CE038A807A12B46244ACDE9A1
:102F300001860094CDE903105146484601F0FEF9A0
:102F400000208BE79554415D7368613100000000FB
:102F500025640A25730A70726F64756374732F2574
:102F6000730A25730000000025640A25730A707235
:102F70006F64756374732F25732F64657669636559
:102F8000732F25730A25730076657273696F6E3D22
:102F90002573267265733D70726F64756374732553
:102FA00025324625732665743D2564266D65746853
:102FB0006F643D2573267369676E3D2573000000BD
:102FC000749B00082DE9F041ACB001270D250026C7
:102FD000002405F1F00002F069FA06461EB93846F1
:102FE0002CB0BDE8F08103E04FF4FA7002F02EF847
:102FF0002AA12CA0FEF7F4FC0028F5D10120902195
:1030000008AA0023CDE90032CDE902102FA33B4AE4
:103010003BA13EA0FFF708FF3FA10D20CDE9000135
:1030200005F1F00108AB3D4A304601F087F9304622
:10303000FDF718F91FFA80F841463046FEF7FAFC12
:10304000FA20FEF7F3FB044624B135A12046FDF734
:10305000EDF80446CCB100200390344803A904AB3A
:10306000334ACDE9001033492046FDF72FF90428F3
:103070000AD12E48039904AB2D4ACDE900102EA1A8
:10308000354801F0B7F8002700BF304602F036F8A7
:1030900032A133A0FEF7A4FC3846A1E7434F4E4EC1
:1030A0004543540041542B43495053544152543DDD
:1030B00022544350222C223138332E3233302E34D6
:1030C000302E3333222C38300D0A00004E30744B32
:1030D0005A444A7862316C7264324E774D33684696
:1030E000593170784D6D3161526B68745456646A11
:1030F0006233467A6255303D0000000000CF9D7477
:1031000030615267755259524145000032303138B2
:103110002D31302D3331000064310000BC9B00089C
:103120006465766963655F6964000000F82E0020BD
:10313000E82E0020289B0008637265617465206496
:1031400065766963653A2025732C2025732C20252C
:10315000642C2025730D0A00003801404F4B0000FD
:1031600041542B434950434C4F53450D0A00000036
:1031700000B595B00020119012901390149003A800
:10318000029010A010A313A23821009003A801F010
:10319000D5F803AA17A11D4801F02CF811A80123A6
:1031A00002AA002100901420FFF7BEF938B9129A44
:1031B00091B21198FEF73EFC11A8FEF705FF15B07D
:1031C00000BD0000643100003061526775525952F1
:1031D00041450000247379732F25732F25732F74B5
:1031E00068696E672F70726F70657274792F73657E
:1031F0007400000053756273637269626520546FD6
:103200007069633A2025730D0A0000000038014000
:1032100030B5B3B000202F9030903190329001251E
:10322000A02107AA37A3CDE90032CDE9021036A3C9
:10323000414A42A144A0FFF7F7FD07A83FA331A2EE
:1032400044A100904F4800F0D5FF2FA80021029123
:103250000391CDE90410084601210B0229A2CDE912
:10326000001007A935A0FEF701FF002842D1309ACF
:1032700091B22F98FEF7DEFBFA20FEF7D7FA04464C
:10328000002C33D02046FFF7F1FA02282ED1204639
:10329000FFF7ECF9062823D2DFE800F003090E134C
:1032A000181D39A1374800F0A5FF00251DE03BA1FE
:1032B000344800F09FFF18E03FA1324800F09AFF29
:1032C00013E046A12F4800F095FF0EE04BA12D48DA
:1032D00000F090FF09E052A12A4800F08BFF04E0C3
:1032E0005AA1284800F086FF00BF00BF2FA8FEF7B4
:1032F0006BFE03E05CA1234800F07CFF284633B05E
:1033000030BD0000643100004E30744B5A444A789E
:1033100062316C7264324E774D3368465931707841
:103320004D6D3161526B68745456646A6233467AEB
:103330006255303D0000000000CF9D74306152673F
:103340007552595241450000323031382D31302DFF
:10335000333100004F6E654E45545F4465764C69CD
:103360006E6B0D0A4E414D453A2025732C09505283
:103370004F49443A2025732C094B45593A25730D82
:103380000A00000000380140546970733A09C1AC6A
:10339000BDD3B3C9B9A60D0A000000005741524E73
:1033A0003A09C1ACBDD3CAA7B0DCA3BAD0ADD2E94B
:1033B000B4EDCEF30D0A00005741524E3A09C1ACAC
:1033C000BDD3CAA7B0DCA3BAB7C7B7A8B5C4636CEE
:1033D00069656E7469640D0A000000005741524E21
:1033E0003A09C1ACBDD3CAA7B0DCA3BAB7FECEF1CF
:1033F000C6F7CAA7B0DC0D0A000000005741524EC4
:103400003A09C1ACBDD3CAA7B0DCA3BAD3C3BBA72A
:10341000C3FBBBF2C3DCC2EBB4EDCEF30D0A00007C
:103420005741524E3A09C1ACBDD3CAA7B0DCA3BACA
:10343000B7C7B7A8C1B4BDD328B1C8C8E7746F6B0C
:10344000656EB7C7B7A8290D0A0000004552523A69
:1034500009C1ACBDD3CAA7B0DCA3BACEB4D6AAB456
:10346000EDCEF30D0A0000005741524E3A094D517E
:1034700054545F5061636B6574436F6E6E65637423
:10348000204661696C65640D0A00000070B58CB05F
:10349000044630216846FCF7B2FE4BA12046FCF7FB
:1034A000FCFE30216846FCF7AAFE4D4802784DA18B
:1034B000684600F05DFF69462046FCF7ABFE302110
:1034C0006846FCF79CFE4D4802784DA1684600F026
:1034D0004FFF69462046FCF79DFE30216846FCF709
:1034E0008EFE4D48007808B14CA000E04DA0024689
:1034F0004EA1684600F03CFF69462046FCF78AFE74
:1035000030216846FCF77BFE4D480068FDF7CEF998
:1035100005462A460B464BA1684600F029FF69463E
:103520002046FCF777FE30216846FCF768FE4B48E2
:10353000007808B139A000E03AA0024648A16846E8
:1035400000F016FF69462046FCF764FE302168460D
:10355000FCF755FE4748007808B130A000E031A0E4
:10356000024645A1684600F003FF69462046FCF785
:1035700051FE30216846FCF742FE4548027845A1DD
:10358000684600F0F5FE69462046FCF743FE302110
:103590006846FCF734FE45480068FDF787F90546A4
:1035A0002A460B4642A1684600F0E2FE69462046E4
:1035B000FCF730FE45A12046FCF72CFE2046FCF728
:1035C00051FE80B20CB070BD7B226964223A223178
:1035D0003233222C22706172616D73223A7B0000BB
:1035E000200000202274656D70223A7B2276616C87
:1035F0007565223A25647D2C000000002100002022
:103600002268756D69223A7B2276616C7565223A73
:1036100025647D2C00000000580000207472756540
:103620000000000066616C7365000000226C656438
:10363000223A7B2276616C7565223A25737D2C00D7
:103640002400002022736D6F67223A7B2276616C22
:103650007565223A252E32667D2C0000DA020020A4
:103660002266616E223A7B2276616C7565223A256C
:10367000737D2C00D90200202262656570223A7B9E
:103680002276616C7565223A25737D2C000000005E
:10369000220000202266616E5F61646A223A7B220A
:1036A00076616C7565223A25647D2C002800002027
:1036B00022736D6F675F7468223A7B2276616C7546
:1036C00065223A252E32667D000000007D7D0000D7
:1036D0002DE9F04F89B082460020089007900690AF
:1036E00005900490804681465046FFF7BFF880461B
:1036F000B8F1030F06D0B8F1040F65D0B8F1090F87
:103700007AD16AE0494804A905AA08ABCDE90021AD
:10371000029006AA07A95046FEF7B8FF8146B9F104
:10372000000F50D1BDF814000899CDE90010BDF884
:1037300018303FA14D48079A00F05CFD089801F051
:10374000B5FB83464AA1584601F090FB03904AA17D
:10375000039801F08BFB044644B1E068012802D1D4
:10376000FEF7E6FB02E00020FEF7E2FB43A1039830
:1037700001F07CFB05464DB1E868012803D15020DB
:10378000FEF75CFA02E00020FEF758FA3CA103982D
:1037900001F06CFB064636B1D6E906211046FDF76E
:1037A000B1F83949086039A1039801F05FFB074679
:1037B00037B1387D3749087008460078FEF718FAA7
:1037C000584601F027FB00BF5046FFF73FF818B9F5
:1037D00031A1264800F00EFD11E05046FFF780F8B9
:1037E00028B935A1214800F005FD04E004E039A125
:1037F0001E4800F0FFFC02E04FF0FF3900BF00BFA1
:10380000FEF706F809F1010010B909B0BDE8F08F24
:10381000B8F10F0F02D0B8F1030F05D1079801F0EE
:103820006DFC089801F06AFC00BFEEE77803002009
:10383000746F7069633A2025732C20746F7069630C
:103840005F6C656E3A2025642C207061796C6F6125
:10385000643A2025732C207061796C6F61645F6C11
:10386000656E3A2025640D0A000000000038014012
:10387000706172616D7300006C65640066616E005A
:10388000736D6F675F7468002800002066616E5F6B
:1038900061646A0022000020546970733A094D5136
:1038A0005454205075626C6973682053656E6420AF
:1038B0004F4B0D0A00000000546970733A094D51D6
:1038C000545420537562736372696265204F4B0DC7
:1038D0000A000000546970733A094D515454205342
:1038E0007562736372696265204572720D0A000029
:1038F00030B5C5B0002041904290439044900024E0
:1039000000251CA1234800F075FC4FF4807101A82C
:10391000FCF775FC01A8FFF7B9FD04B2002C26D016
:1039200041A8002322461CA100901CA0FEF7CAFD5E
:10393000C8B908E001A8415D429A501C42904198E4
:103940008154681C05B2A542F4DB429A91B24198B9
:10395000FEF770F814A10F48429A00F04BFC41A802
:10396000FEF732FB03E014A10A4800F043FC45B027
:1039700030BD0000546970733A094F6E654E65742E
:103980005F53656E64446174612D4D5154540D0A4A
:1039900000000000003801406431000030615267CF
:1039A000755259524145000053656E6420256420CC
:1039B00042797465730D0A005741524E3A094544E5
:1039C000505F4E6577427566666572204661696C28
:1039D00065640D0A0000000008B515E04FF0FF30E7
:1039E00000230122022100900848006804F002FC34
:1039F0005020FEF723F90120FDF718FE0120FEF705
:103A000097FAC82001F0DEFAE8E700003000002055
:103A100029B1064AD2690243044BDA6104E0034A41
:103A2000D2698243014BDA61704700000010024006
:103A300029B1064A92690243044B9A6104E0034AA1
:103A400092698243014B9A61704700000010024066
:103A500010B5012140F60400FFF7EAFF10BD000099
:103A600030B500210022002400232D4D6D6805F0A3
:103A70000C0121B1042905D0082923D105E0294DE5
:103A8000056022E0274D05601FE0254D6D6805F4B7
:103A90007012234D6D6805F48034022505EB9242C7
:103AA0001CB9214D554305600BE01D4D6D6805F4B3
:103AB00000351DB11C4D5543056002E0194D5543BD
:103AC000056002E0174D056000BF00BF144D6D6832
:103AD00005F0F0010909154D6B5C0568DD40456096
:103AE0000F4D6D6805F4E061090A104D6B5C456887
:103AF000DD4085600A4D6D6805F46051C90A0B4DC3
:103B00006B5C4568DD40C560054D6D6805F440415E
:103B1000890B074D6B5CC568B5FBF3F5056130BDDE
:103B20000010024000127A0000093D00F00200205F
:103B30000003002010B500F001F810BD0CB5002006
:103B4000019000903348006840F4803031490860AB
:103B500000BF3048006800F4003000900198401C1D
:103B60000190009818B90198B0F5A06FF1D12948DB
:103B7000006800F4003010B10120009001E0002046
:103B800000900098012843D12348006840F01000BD
:103B9000214908600846006820F0030008600846D4
:103BA000006840F0020008601A48406819494860FF
:103BB0000846406848600846406840F480604860B5
:103BC0000846406820F47C1048600846406840F48D
:103BD000E81048600846006840F08070086000BF48
:103BE0000C48006800F000700028F9D009484068CF
:103BF00020F00300074948600846406840F0020092
:103C0000486000BF0348406800F00C000828F9D164
:103C10000CBD00000010024000200240042808D122
:103C20004FF0E021096941F004014FF0E0221161F9
:103C300007E04FF0E021096921F004014FF0E02294
:103C40001161704710B504F04BFF012801D004F05A
:103C5000CDFB10BD10B51348006840F001001149BC
:103C6000086008464068104908400E494860084608
:103C700000680E4908400B4908600846006820F4B7
:103C8000802008600846406820F4FE0048604FF439
:103C90001F008860FFF74EFF4FF000600449086086
:103CA00010BD0000001002400000FFF8FFFFF6FE0C
:103CB00008ED00E000B587B040F2E730ADF8140041
:103CC0004720ADF810000020ADF81600ADF8120046
:103CD00004A9124800F0A4F86020ADF8000001200B
:103CE000ADF802000020ADF80600ADF80800694606
:103CF0000A4800F03DF80821084800F085F8012145
:103D0000064800F00DF80121044800F015F80121E3
:103D1000024800F01DF807B000BD0000002C014073
:103D200021B1028842F08002028004E002884FF64E
:103D30007F731A400280704721B1028842F001026D
:103D4000028004E002884FF6FE731A40028070473A
:103D500031B1B0F8442042F40042A0F8442005E01C
:103D6000B0F84420C2F30E02A0F8442070470000CF
:103D700070B5002400220023058C4FF6FE763540F6
:103D80000584028C8388048B4FF68F752C40B51EFA
:103D90002C400D882C43751E2A400D892A434D88DE
:103DA0002A43144DA8420BD0134DA84208D0134DFE
:103DB000A84205D0124DA84202D0124DA84213D1FC
:103DC0004FF6F7752A404D892A434FF6FB752A4076
:103DD0008D882A434FF6FF652B404FF6FF552B4049
:103DE0008D892B43CD892B4383800483CD888586A1
:103DF000028470BD002C01400034014000400140AD
:103E000000440140004801400A460021018B4FF662
:103E1000F773194011430183704781867047000092
:103E2000002202881D4B98420ED01D4B98420BD0A9
:103E3000B0F1804F08D01B4B984205D01A4B9842E6
:103E400002D01A4B984204D14FF68F731A404B8818
:103E50001A43174B984207D0164B984204D04FF69E
:103E6000FF431A40CB881A4302808B8883850B88D6
:103E700003850A4B98420BD0094B984208D00E4B51
:103E8000984205D00D4B984202D00D4B984201D17B
:103E90000B7A03860123838270470000002C0140C7
:103EA000003401400004004000080040000C0040C5
:103EB0000010004000140040004001400044014058
:103EC0000048014010B540F225510C4800F035F88B
:103ED00098B10B480088B0F5007F02D30020084954
:103EE0000880064800F0E4F8C1B20548028800885E
:103EF000401C034B18800348815410BD004400400F
:103F00007A030020282F002021B1828942F4005238
:103F1000828104E082894DF6FF731A4082817047E6
:103F200002460020B1F5007F00D100BF13880B408E
:103F30000BB1012000E00020704770B5024600245C
:103F400000230025002040F66A16B14200D100BFD0
:103F5000C1F3421501F01F03012606FA03F3012DF8
:103F600002D19689334006E0022D02D1168A3340F1
:103F700001E0968A33400C12012606FA04F41688F2
:103F8000344013B10CB1012000E0002070BDF0B549
:103F90000346002400260025002040F66A17B94297
:103FA00000D100BF1846C1F3421401F01F060127DB
:103FB00007FA06F5012C01D10C3004E0022C01D1E6
:103FC000103000E014301AB107682F43076002E098
:103FD0000768AF430760F0BD2DE9F04786B005469E
:103FE0000E460024A24600BFA1460027B08900B1BA
:103FF00000BF2F462C8A4CF6FF700440F088044323
:104000002C82AC894EF6F3100440B0883189084305
:10401000718908430443AC81AC8A4FF6FF400440E9
:10402000B0890443AC8201A8FFF71AFD1F488742FC
:1040300002D1DDF810A001E0DDF80CA0A88900F4A1
:10404000004040B10AEBCA0000EB0A103168490099
:10405000B0FBF1F807E00AEBCA0000EB0A10316888
:104060008900B0FBF1F86420B8FBF0F004012009EE
:10407000642101FB1089A88900F4004040B132207E
:1040800000EBC900B0FBF1F000F00700044308E0CA
:10409000322000EB09106421B0FBF1F000F00F00BA
:1040A00004432C8106B0BDE8F087000000380140D1
:1040B00001468888C0F308007047C1F30802828077
:1040C0007047704710B586B0044601210420FFF701
:1040D000AFFC01218803FFF7ABFC18208DF8170017
:1040E0004FF40070ADF8140003208DF8160005A9F8
:1040F0001348FDF7DBFD04208DF817000002ADF832
:10410000140003208DF8160005A90D48FDF7CEFD1B
:1041100001940020ADF810000820ADF80E0000203A
:10412000ADF80C00ADF80A00ADF8080001A905488B
:10413000FFF752FF01210348FFF7E6FE06B010BD6E
:10414000000801400038014010B586B00446012146
:104150000420FFF76DFC01214804FFF759FC1820EB
:104160008DF817000420ADF8140003208DF8160018
:1041700005A91E48FDF79AFD04208DF817000820B8
:10418000ADF8140003208DF8160005A91748FDF7B7
:104190008DFD01940020ADF810000C20ADF80E004C
:1041A0000020ADF80C00ADF80A00ADF8080001A938
:1041B0000F48FFF711FF01210D48FFF7A5FE01226F
:1041C00040F225510A48FFF7E2FE26208DF8000054
:1041D00001208DF8030005208DF8010000208DF8E6
:1041E00002006846FEF7E4FB06B010BD000801407F
:1041F000004400400FB430B5CBB0054601AC50A828
:1042000000904FF4947101A8009B4F9A00F0C4F8FD
:10421000002000900BE014F8011B2846FFF74DFF2B
:1042200000BF40212846FFF77BFE0028F9D0207808
:104230000028F0D14BB030BC5DF814FB2DE9F04103
:1042400007460C46154600260DE014F8011B3846BB
:10425000FFF733FF00BF40213846FFF761FE00281B
:10426000F9D0701C86B2AE42EFDBBDE8F0810000F1
:104270002DE9F04105462C4602211148FDF7AAFD23
:10428000002619E0274607F08007802F04D101217E
:104290000B48FDF7A1FD03E001210948FDF79AFD58
:1042A0006006040E02210648FDF796FD022104482F
:1042B000FDF790FD701CC6B2082EE3DBBDE8F0816F
:1042C000000C014010B50446FDF78EFD7820FFF785
:1042D000CFFFFDF7ADFD0020FFF7CAFFFDF7A8FDFA
:1042E0002046FFF7C5FFFDF7A3FDFDF791FD10BDCB
:1042F00010B50446FDF778FD7820FFF7B9FFFDF70C
:1043000097FD4020FFF7B4FFFDF792FD2046FFF731
:10431000AFFFFDF78DFDFDF77BFD10BD0FB4054B25
:1043200010B503A9044A029800F0B2F910BC5DF878
:1043300014FB0000E15000088C0300200FB47CB592
:104340000C0009AD01D0611E00E00021CDE90001A3
:10435000064B6A462946089800F09AF9002C02D0CC
:10436000009A002111707CBC5DF814FB974D000889
:104370000FB4084B10B504A902AA039800F088F9FD
:10438000044602A9002000F011FD204610BC5DF893
:1043900014FB0000AD4D00087CB50C001D46164610
:1043A000014601D0601E00E00020CDE90010064B60
:1043B0006A462946304600F06BF9002C02D0009A7C
:1043C000002111707CBD0000974D0008490050EAA3
:1043D000C12018BF04204A0D18BF40F0010040F270
:1043E000FF72B2EB515F08BF40F00200012808BF26
:1043F000052070472DE9F0414F1E00EBC701044630
:10440000D1E9000115461E4637F006020DD02A46B6
:104410003346FCF7A4F97F1E04EBC703D3E900235E
:10442000FCF7F6F837F00602F1D1022F25D0042F61
:1044300013D0062F18BFBDE8F0812A463346FCF79B
:104440008EF9D4E90A23FCF7E3F82A463346FCF751
:1044500086F9D4E90823FCF7DBF82A463346FCF753
:104460007EF9D4E90623FCF7D3F82A463346FCF755
:1044700076F9D4E90423FCF7CBF82A463346FCF757
:104480006EF9D4E90223FCF7C3F82A463346FCF759
:1044900066F9D4E90023BDE8F041FCF7B9B80000A3
:1044A0000022134610460149FCF7AABB0000F03F6A
:1044B000FCF7AEB80022134610461146FCF7A0BB2D
:1044C00040F2013200204FF0E041FCF708BC000050
:1044D000024A00201107FCF702BC000001FDFFFFAB
:1044E00002E008C8121F08C1002AFAD170477047BD
:1044F000002001E001C1121F002AFBD1704700001B
:104500000149086070470000980300202DE9FF5F13
:1045100082B00021DDE90430020DDDF840B0034334
:1045200018D044F61050A2F2FF32424315141198ED
:1045300001281FD0A5EB0B00401C5FEA000A4FF0DA
:1045400000064E4FDFF83891B046504615D5CAF1F7
:10455000000413E0119801244AA3012801D16FEA55
:104560000B010298119AC0E90031C0E9024206B07D
:10457000BDE8F09FCBF10000DFE704460021404A90
:10458000491842EB0450CDE9001012E0E00707D0D3
:1045900032463B4640464946FCF7E1F880468946AC
:1045A00032463B4610461946FCF7D9F806460F46F8
:1045B0006410002CEAD1DDE90401DDE90023BAF141
:1045C000000F06DAFCF7CBF842464B46FCF7C7F87B
:1045D00005E0FCF715FB42464B46FCF711FB044691
:1045E0000E460022284BFCF775F903D84FF0FF3038
:1045F000014607E00022254B20463146FCF708F82B
:10460000FCF784FB102409E0002C0ADB0A220023BB
:10461000FCF7BEF9039B30321A55641E50EA0102C2
:10462000F2D1641C039AC4F111031444119A012AB3
:1046300003D0012208430DD10AE0084304D0002032
:104640004FF0110B119072E7A3EB0B056D1E0DE0FF
:104650005B4504DD4FF0000205F1010504E003DADB
:104660004FF00002A5F10105002AECD00298119943
:10467000C0E90231C0E9004579E7000000001440BC
:104680000000F03F300000000000F0430000E03F79
:104690002DE9FF4F95B09A46884606460025EEE183
:1046A000252877D100242746F94A0121039400E008
:1046B000044316F8013F203B01FA03F01042F7D102
:1046C00030782A2811D06FF02F033078A0F1300213
:1046D000092A16D8039A44F0020402EB820203EB83
:1046E00042021044761C0390EFE758F8042B039223
:1046F000002A03DA504244F40054039044F00204C8
:10470000761C30782E2816D116F8010F44F00404D8
:104710002A280DD06FF02F023078A0F13003092B3A
:1047200009D807EB870302EB4303C718761CF3E7AE
:1047300058F8047B761C30786C280FD006DC4C28A7
:1047400017D068280DD06A2814D104E0742810D03E
:104750007A280FD10DE044F400140AE044F48014E8
:1047600001E044F440147278824202D104F58014CE
:10477000761C761C307866280BD013DC582877D04E
:1047800009DC002875D04528F6D04628F4D0472803
:104790001AD193E118E0632835D0642879D06528D0
:1047A00012D18BE1702873D008DC6728F1D069281A
:1047B0006FD06E280DD06F2806D1ACE073282CD0B6
:1047C000752874D0782853D05246179990476D1C9D
:1047D00054E1C4F30250022809D003280DD0D8F8C0
:1047E000001004280DD00D6008F1040846E1D8F847
:1047F0000010EA17C1E90052F6E7D8F800100D8062
:10480000F2E70D70F0E718F8041B8DF80010002097
:104810008DF80100EB46012003E058F804BB4FF08F
:10482000FF3061074FF0000102D40DE009F10101F2
:104830008946B9420FDA8145F8DB1BF809100029D7
:10484000F4D108E009F1010189468142FADB1BF845
:1048500009100029F6D103985346A0EB0907214619
:104860003846179A00F080FA284400EB090507E063
:1048700044E008E10DE01BF8010B52461799904700
:10488000B9F10109F7D2534621463846179AF2E0AA
:1048900039E00A21C4F302524FF0000B0091022AC2
:1048A00006D058F8040BC117032A09D00AE023E008
:1048B00008F1070020F00702F2E80201904605E047
:1048C00000B2C117042A01D140B2C117002906DA8B
:1048D0000A460021404261EB02012D2202E022053E
:1048E00004D52B228DF80420012203E0E20701D039
:1048F0002022F7E7914657E00A2100E010214FF00F
:10490000000B00910BE010214FF0000B44F0040469
:104910000827009103E008204FF0000B0090C4F33B
:104920000252022A05D058F8040B0021032A08D0AD
:1049300008E008F1070020F00702F2E802019046C3
:1049400003E080B2042A00D1C0B24FF00009220770
:104950002AD53278702A07D0DDF800C08CF0100C10
:104960005CEA0B0C05D00EE040228DF804200122F9
:1049700008E050EA010306D030238DF804308DF8AA
:10498000052002229146009B83F0080353EA0B03A3
:104990000AD150EA010201D1620705D530228DF813
:1049A00004204FF001097F1E3278582A04D039A222
:1049B0000C920CAA02920BE03BA2F9E75B46009A2C
:1049C000FBF7E6FF0C9B9B5C029A521E029213704F
:1049D00050EA0102F2D1029804A9081A00F1200B52
:1049E000600702D524F4803400E001275F4502DD32
:1049F000A7EB0B0000E0002000EB0B0100900398F8
:104A00004944401A0390E00306D453462146179ABE
:104A1000039800F0A9F90544002706E001A85246D2
:104A2000C05D179990476D1C7F1C4F45F6DBE00376
:104A30000CD553462146179A039800F095F9054482
:104A400004E030205246179990476D1C0099481E8B
:104A500000900029F5DC08E002980299524600789F
:104A6000491C0291179990476D1CBBF10001ABF1F5
:104A7000010BF1DC5BE100F065F90544761C307850
:104A800000287FF40DAE19B02846BDE8F08F000075
:104A90000928010030313233343536373839616214
:104AA00063646566000000003031323334353637D8
:104AB000383941424344454600000000600700D4B5
:104AC000062708F1070020F00700F0E802238046DF
:104AD00003F0004C5FEA0C0001D097A009E020052C
:104AE00001D596A005E0E00701D095A001E0AFF266
:104AF0004C001390307823F0004365280CD006DC7E
:104B0000452809D046281DD047287FD13BE066289C
:104B100018D067287AD136E00021112F01DB11204F
:104B200000E0781CCDE9000104A90CA8FFF7EEFC19
:104B3000DDE90D010C9A4FF0000B07F1010910920D
:104B400000914EE04FF000400097CDE9011004A91C
:104B50000CA8FFF7DBFCDDE90D020C9B0F994FF071
:104B6000000B91461093009211B9791C00EB0109DA
:104B7000B7EB090003D4C0F1FF3B07F10109A9EB32
:104B80000700019042E0012F00DA01270021112FD8
:104B900001DD112000E03846CDE9000104A90CA890
:104BA000FFF7B4FCDDE90D010C9A00914FF0000B0A
:104BB000B946109221070FD4009A4A4503DA91466C
:104BC00001E0A9F10109B9F1010F05DD109AA9F180
:104BD0000101515C3029F4D0B84202DA10F1040F1F
:104BE00003DA0121CDE9011010E0002803DC834441
:104BF000A9EB000102E0411C494500DD8946A0EB1C
:104C00000B00401C01904FF000400290200705D49B
:104C10000198484502DB4FF0FF30019000208DF8ED
:104C20004B0002980DF14B07B0F1004F25D0022048
:104C30000C902B200D90029800280CDA4042029034
:104C40002D200D9007E00A210298FBF78BFE3031F2
:104C5000029007F8011D0C99481E0C900029F2DC07
:104C600002980028EFD1791E0D980870307800F076
:104C7000200040F0450007F8020D11A8C01BC01D20
:104C800002901398007800B1012000EB090101980F
:104C900001EBE071029801440398401A401E039012
:104CA000E00306D453462146179A039800F05CF8B7
:104CB00005441398007818B15246179990476D1C17
:104CC000E00323D553462146179A039800F04CF889
:104CD00005441BE0BBF1000F07DB0098584504DDDD
:104CE0001098179910F80B0001E0179930205246E0
:104CF000904701980BF1010B401E05F10105019051
:104D000004D12E205246179990476D1CB9F100012D
:104D1000A9F10109DEDC05E017F8010B52461799ED
:104D200090476D1C0299481E02900029F4DC5346FE
:104D30002146179A03989EE62D0000002B000000E4
:104D4000200000002DE9F041044600251E461746CC
:104D5000880404D405E039462020B0476D1C641E49
:104D6000F9D52846BDE8F0812DE9F041044600253B
:104D70001E469046C80301D5302700E0202788044E
:104D800004D505E041463846B0476D1C641EF9D590
:104D90002846BDE8F0814A68002A06D00A68531CFC
:104DA0000B6010704868401E486070470A68531CCA
:104DB0000B6010707047000070B502210C48FCF7C2
:104DC00017FA18B10A48FCF70FFA05462A4609A156
:104DD0000D48FFF70FFA2846FBF733FD06460B494F
:104DE000FBF7A6FB04460A49FBF7D4FB70BD0000A5
:104DF000002401404144435F56414C55452D2D2D23
:104E00002D25640D0A000000003801403333534063
:104E100000F07F4570B5044622E02568A08900F4C3
:104E2000807020B9A06810B1A068FFF7F3FFA089D7
:104E300000F4807028B9206918B10B49206909680D
:104E40008847A08900F4007028B9206A18B1064983
:104E5000206A0968884720460349096888472C4624
:104E6000002CDAD170BD00008803002070B5054623
:104E70000E46AC6800E024682CB13146206A00F090
:104E80004FF80028F7D1204670BD000010B528204B
:104E900005490968884704461CB128212046FBF7CC
:104EA000AEF9204610BD00008403002010B5044672
:104EB00000221146204600F001F810BD2DE9F04710
:104EC00080460D4616460024FFF7E0FF0746002007
:104ED000124908600FB9BDE8F087404602F066FC51
:104EE00081464946384600F067FF044624B93846F3
:104EF000FFF790FF0020EEE766B1204602F056FC77
:104F00000446207830B13846FFF784FF0348046038
:104F10000020E0E705B12C603846DCE78003002084
:104F200070B504460D462CB9AC4201D0012070BDCD
:104F30000020FCE70DB90120F9E705E0207808B969
:104F40000020F4E7641C6D1C2078FBF739F9064655
:104F50002878FBF735F98642F0D02078FBF730F956
:104F600006462878FBF72CF9301AE0E710B5042044
:104F7000FEF754FE0F4800680F49B0FBF1F00F49EF
:104F800008700C4800684FF47A71B0FBF1F401200E
:104F90000B4908804FF0E020006940F002004FF01C
:104FA000E021086108464461006940F001000861A1
:104FB00010BD0000DC02002040420F005400002021
:104FC0005600002070B5044603F08AFD012810D079
:104FD0000B480088844206D309480088B4FBF0F5EA
:104FE000284602F0E7FD06480088B4FBF0F100FB1C
:104FF00011444FF47A7104FB01F000F003F870BD26
:105000005600002070B5034600224FF0E026756977
:105010000D4E367803FB06F44FF0E026B16910E040
:105020004FF0E026B06988420BD0884202D20E1AB7
:10503000324402E02E1A0E4432440146A24200D30A
:1050400000E0EDE700BF70BD5400002030B504461D
:10505000002504E04FF47A70FFF7D4FF6D1CA542E1
:10506000F8D330BD10B5FDF7E5FC0122002108465C
:10507000FDF79EFD022200211220FDF799FD00227E
:1050800011462420FDF794FD032200214820FDF75E
:105090008FFD042203210020FDF78AFD0522032154
:1050A0001220FDF785FD002203212420FDF780FD5D
:1050B00010230AA203214820FDF700FE0622114614
:1050C0000020FDF775FD072206211220FDF770FD77
:1050D000002206212420FDF76BFD10BD25000000F5
:1050E00000BF054A128802F04002002AF9D0C2B27D
:1050F000014B1B1D1A8070470038014010B5002875
:1051000021D0114B0022001F196803E0814203D80F
:105110000A4649680029F9D152B11368841A9C42A1
:1051200004D1006818441060104602E0506000E0AE
:10513000186039B102680B1A934203D10B681A4404
:1051400002604968416010BD90030020F0B504463C
:10515000142C06DA01EA020523EA010685EA0600B4
:1051600019E0282C04DA81EA020787EA030012E03A
:105170003C2C0ADA01EA020501EA030787EA050680
:1051800002EA030787EA060005E0502C03DA81EA09
:10519000020787EA0300F0BD2DE9F04FADF5B36DCE
:1051A00007460E4692469846DDF8BC9540254FF0DE
:1051B000360B5C20CDF89405002404E000200DF2AD
:1051C00054510855641C402CF8DBAE421DD0AE4251
:1051D0000FDD4A463146384602F0A6F9002405E0C4
:1051E00019F804000DF254510855641C142CF7DB17
:1051F00014E0AE4212DA002404E0385D0DF254519E
:105200000855641CB442F8DB08E0002404E0385D73
:105210000DF254510855641CAC42F8DB002408E040
:105220000DF25450005D80EA0B000DF21451085548
:10523000641C402CF4DB002405E00DF21450005DEA
:1052400015A90855641C402CF7DB002406E01AF869
:10525000041015AA04F140001154641C4445F6DB07
:1052600008EB05014A4615A802F05EF9002409E0A2
:105270000DF25450005DDDF8941548400DF2D44114
:105280000855641C402CF3DB002405E00DF2D440EB
:10529000005D0DF80400641C402CF7DB002406E0E0
:1052A00019F8041004F140000DF80010641C142CCF
:1052B000F6DB4A4605F11401684602F035F90DF5B2
:1052C000B36DBDE8F08F00000146142901DA0748EC
:1052D0000AE0282901DA064806E03C2901DA0548F7
:1052E00002E0502900DA0448704700009979825A98
:1052F000A1EBD96EDCBC1B8FD6C162CA08B50121F7
:105300001020FEF795FB4FF40050ADF8000003208D
:105310008DF8020010208DF8030069460448FCF760
:10532000C5FC4FF400510248FCF756FD08BD0000D3
:10533000001001401CB54FF44070FDF771FBFFF702
:1053400015FE4FF4E130FEF7BDFE4FF4E130FEF7FD
:10535000FBFEFDF78FFBFFF7D1FFFCF74FF9FCF7E2
:10536000AFF9FCF763FCFDF7D7FAFCF787FAFDF716
:1053700029FEFDF75FFB082322A205210020FDF78F
:105380009DFC03E04FF4FA70FFF760FE23A125A017
:10539000FCF726FB0028F5D1FDF74CFB08232DA2D6
:1053A00004210020FDF78AFCFDF744FB082331A20D
:1053B00004210020FDF782FC07E018A119A0FCF7EA
:1053C0000FFB4FF4FA70FFF741FEFDF721FF0028B5
:1053D000F3D1FDF72FFB08232AA204210020FDF7BB
:1053E0006DFCFDF7C5FE2B48012100234A02CDE9E3
:1053F000001029A12C4803F043FB02F0B5FD00BFCB
:10540000FEE70000436F6E6E656374204D51545487
:1054100073205365727665722E2E2E00434F4E4ECA
:105420004543540041542B43495053544152543D39
:1054300022544350222C226D717474732E6865635C
:105440006C6F7564732E636F6D222C313838330D99
:105450000A000000436F6E6E656374204D51545412
:105460007320536572766572205375636365737339
:1054700000000000446576696365206C6F67696EA3
:105480002E2E2E00434F4E4E4543542053756363DA
:1054900065737300340000206D795F7374617274FA
:1054A0005F7461736B00000009560008F0B50B30A3
:1054B000154D20F007010024144A0FE003688B42C9
:1054C0000BD38B4205D95E1A43184768C3E90067BE
:1054D00000E04368136002C004E0021D1068002869
:1054E000ECD12046002802D1286808B10020F0BD88
:1054F000064A07481060074A121A22F00702C0E95C
:10550000002401202860D7E79403002090030020A6
:105510002C3100202833002008B52EE01749184808
:10552000FCF727F91648027816A16846FEF720FF17
:1055300010236A4600213620FDF7C0FB0F48027891
:1055400010A16846FEF714FF10236A460321362097
:10555000FDF7B4FB0C48007828B10822062136205C
:10556000FDF726FB04E0092206213620FDF720FB8B
:1055700040F6B830FFF726FD00BFCFE7210000203E
:1055800020000020253264005800002000241AE08A
:1055900000235A1E19460C48006802F07BFF0128C0
:1055A0000ED10320FCF742F9044614B12046FEF761
:1055B0008FF800231A4619460348006803F0A6F83E
:1055C0003220FFF7FFFCE3E72C00002000BF17E0CC
:1055D00000235A1E19460B48006802F05BFF0128A1
:1055E0000AD1FEF785F9FCF713F900231A4619468C
:1055F0000448006803F08AF84FF47A70FFF7E2FC81
:10560000E6E700002C0000201CB5044602F05EF91D
:10561000FCF71AFCFFF726FD02F058FD2A49086046
:1056200003220021012002F0FBFE2849086000232C
:105630001A4619462548006803F068F824480521F1
:1056400000238022CDE9001022A1264803F018FA99
:105650002548042100238A01CDE9001023A1274811
:1056600003F00EFA2648052100234FF48072CDE99D
:10567000001024A1274803F003FA2748052100233E
:105680008022CDE9001025A1274803F0F9F9274829
:10569000052100234FF48072CDE9001024A1274892
:1056A00003F0EEF92648042100238A01CDE9001019
:1056B00024A1284803F0E4F92748006802F0B4FA6E
:1056C00002F048F91CBD0000300000202C00002032
:1056D0003C0000206D795F64687431315F746173E0
:1056E0006B00000019550008400000206D795F6FC5
:1056F0006E656E65745F7461736B0000CD55000854
:10570000440000206D795F6F6E656E65745F726531
:10571000760000008D550008480000204B45595F79
:105720007461736B00000000A91E00084C0000208B
:105730004D51325F7461736B00000000511F00080F
:105740005000002050726F636573735F7461736BF8
:1057500000000000D9390008340000202DE9F0478E
:1057600005460C4620785B2804D0264804600020BB
:10577000BDE8F0870520E860601C02F017F80446D9
:1057800020785D2801D1601CF2E7FFF77FFB064619
:10579000A860A86808B90020EAE7204602F006F8E9
:1057A00080464146304600F007FB074601F0FEFF09
:1057B00004460CB90020DBE717E0FFF767FB071E84
:1057C00000D1D5E737607E603E46601C01F0EEFFF9
:1057D00081464946304600F0EFFA804601F0E6FF88
:1057E00004460CB90020C3E700BF20782C28E4D081
:1057F00020785D2801D1601CBAE7024804600020CF
:10580000B6E7000080030020014600220878302817
:1058100006DB0878392803DC08783038024415E0C4
:105820000878412806DB0878462803DC08783738F2
:1058300002440BE00878612806DB0878662803DC60
:1058400008785738024401E0002070471201491CD3
:105850000878302806DB0878392803DC08783038E7
:10586000024415E00878412806DB0878462803DC66
:105870000878373802440BE00878612806DB08789E
:10588000662803DC08785738024401E00020DCE792
:105890001201491C0878302806DB0878392803DC17
:1058A00008783038024415E00878412806DB08788B
:1058B000462803DC0878373802440BE00878612872
:1058C00006DB0878662803DC08785738024401E0D4
:1058D0000020BAE71201491C0878302806DB087856
:1058E000392803DC08783038024415E0087841286C
:1058F00006DB0878462803DC0878373802440BE0DA
:105900000878612806DB0878662803DC08785738B1
:10591000024401E0002098E7104696E72DE9F04F99
:105920008BB083468A460020044605460026674F12
:105930000021884689460990012008909AF80000C5
:105940002D2802D1624F0AF1010A9AF8000030288E
:1059500001D10AF1010A9AF80000312822DB9AF8F5
:10596000000039281EDC00BF1AF8011BA1F130002D
:10597000FAF76CFF0022574BCDE906012046294675
:10598000FAF7EDFECDE90401DDE90623FAF740FE62
:1059900004460D469AF80000302803DB9AF8000010
:1059A0003928E1DD9AF800002E2830D19AF801005C
:1059B00030282CDB9AF80100392828DC0AF1010A8A
:1059C00000BF1AF8011BA1F13000FAF73FFF0022D7
:1059D000404BCDE9060120462946FAF7C0FECDE945
:1059E0000401DDE90623FAF713FE04460D46002202
:1059F000364B40464946FAF7ACFE804689469AF84F
:105A00000000302803DB9AF800003928D9DD9AF825
:105A10000000652803D09AF80000452823D10AF138
:105A2000010A9AF800002B2802D10AF1010A08E0C5
:105A30009AF800002D2804D14FF0FF3008900AF1A9
:105A4000010A08E01AF8010B3038099901EB8101CD
:105A500000EB410009909AF80000302803DB9AF827
:105A600000003928EEDDDDE9082101FB02F0FAF73C
:105A7000EDFE42464B46CDE90001FAF7C9FD02466C
:105A80000B46CDE902010020124900F0F3F922464D
:105A90002B46CDE9060130463946FAF760FECDE9DE
:105AA0000401DDE90623FAF75AFE04460D46CBE968
:105AB000064520462946FAF7DAFECBF81400032003
:105AC000CBF80C0050460BB0BDE8F08F0000F03F63
:105AD0000000F0BF000024402DE9F04706460C46C8
